:020000040800F2
:1000000000280020811C0008D11C0008D11C000819
:10001000D11C0008D11C0008D11C00080000000001
:10002000000000000000000000000000D11C0008DB
:10003000D11C000800000000D11C0008D11C0008E1
:10004000D11C0008D11C0008D11C0008D11C0008DC
:10005000D11C0008D11C0008D11C0008D11C0008CC
:10006000D11C0008D11C0008D11C0008D11C0008BC
:10007000D11C0008D11C0008D11C0008D11C0008AC
:10008000D11C0008D11C0008D11C0008D11C00089C
:10009000D11C0008D11C0008D11C0008D11C00088C
:1000A000D11C0008D11C0008D11C0008D11C00087C
:1000B000D11C0008D11C0008D11C0008D11C00086C
:1000C000D11C0008D11C0008D11C0008D11C00085C
:1000D000D11C00080D240008212400083524000844
:1000E000D11C0008D11C000800000000D11C000831
:1000F000D11C0008D11C0008D11C0008D11C00082C
:10010000D11C0008D11C0008D11C0008D11C00081B
:10011000D11C0008D11C0008D11C0008D11C00080B
:10012000D11C0008D11C0008D11C0008D11C0008FB
:1001300010B5054C237833B9044B13B10448AFF321
:1001400000800123237010BD040000200000000087
:100150009024000808B5034B1BB103490348AFF3D3
:10016000008008BD00000000080000209024000866
:1001700010F8012B11F8013B012A28BF9A42F7D051
:10018000D01A704780B582B000AF0123BB80042332
:10019000BB710223FB713B1D19462C4801F0FCFD8D
:1001A0000223BB800423BB710223FB713B1D194654
:1001B000264801F0F1FD0823BB800423BB71022314
:1001C000FB713B1D1946214801F0E6FD1023BB8061
:1001D0000423BB710223FB713B1D19461B4801F030
:1001E000DBFD8023BB800323BB713B1D19461748F1
:1001F00001F0D2FD4023BB800323BB713B1D194698
:10020000124801F0C9FD2023BB800323BB713B1DB5
:1002100019460E4801F0C0FD002201210B4801F0F3
:1002200051FE00220221094801F04CFE0022082163
:10023000064801F047FE00221021044801F042FE6A
:10024000002318460837BD4680BD00BF000C0140A2
:1002500080B584B000AF78607B68FF221A700123FC
:100260003B737B68002B5DD00023FB7356E0FB7B68
:10027000304AD35C9BB2012219462F4801F022FE7E
:100280000023BB7338E0BB7B2C4AD35C9BB219467E
:10029000294801F000FE03467B737B7B012B28D1AC
:1002A000142000F05FF9BB7B244AD35C9BB2194653
:1002B000214801F0F0FD03467B7309E0BB7B1F4A38
:1002C000D35C9BB219461C4801F0E5FD03467B73E5
:1002D0007B7B012BF2D0FA7BB97B194813465B007C
:1002E000134403440B441A787B681A7000233B7351
:1002F00005E0BB7B0133BB73BB7B022BC3D9FB7B0C
:100300000C4AD35C9BB2002219460B4801F0DAFD7F
:100310003B7B002B08D0FB7B0133FB73FB7B032B68
:10032000A5D902E0012301E000BF002318461037E1
:10033000BD4680BDF8250008000C0140FC250008E2
:10034000EC25000880B582B000AF0346FB71FB7955
:10035000002B02D0012B13D023E001224FF4806147
:10036000124801F0AFFD012000F0FCF800224FF42C
:1003700080610E4801F0A6FD022000F0F3F810E0C5
:10038000012240210A4801F09DFD012000F0EAF819
:1003900000224021064801F095FD022000F0E2F81D
:1003A00000BF002318460837BD4680BD000C014041
:1003B0000008014080B584B000AF0346FB71FB79B3
:1003C000002B02D0012B63D0C3E04FF40063BB814C
:1003D0000423BB730123FB7307F10C0319465F4829
:1003E00001F0DAFC4FF48063BB810423BB7301236B
:1003F000FB7307F10C031946584801F0CDFC4FF48C
:100400008053BB810423BB730123FB7307F10C03EF
:100410001946524801F0C0FC4FF40053BB8104233D
:10042000BB730123FB7307F10C0319464B4801F022
:10043000B3FC4FF48043BB810423BB730123FB73E4
:1004400007F10C031946454801F0A6FC4FF40043A0
:10045000BB810423BB730123FB7307F10C03194613
:100460003E4801F099FC0221002000F0B5F8282157
:10047000002000F0B1F80E21002000F0ADF80621B8
:10048000002000F0A9F80121002000F0A5F860E0AC
:100490002023BB810423BB730123FB7307F10C03EF
:1004A00019462F4801F078FC4023BB810423BB731D
:1004B0000123FB7307F10C031946294801F06CFC7A
:1004C0004FF48053BB810423BB730123FB7307F1FB
:1004D0000C031946224801F05FFC4FF40053BB8126
:1004E0000423BB730123FB7307F10C0319461C485B
:1004F00001F052FC4FF48043BB810423BB73012302
:10050000FB7307F10C031946154801F045FC4FF445
:100510000043BB810423BB730123FB7307F10C036E
:1005200019460F4801F038FC0221012000F054F870
:100530002821012000F050F80E21012000F04CF895
:100540000621012000F048F80121012000F044F8C4
:1005500000BF002318461037BD4680BD000C014087
:100560000008014080B485B000AF78600023FB60D4
:100570000BE00023BB6002E0BB680133BB60BB68DB
:10058000FE2BF9D9FB680133FB60FA687B689A425D
:10059000EFD300BF1437BD4680BC704780B582B032
:1005A00000AF0346FB71FB79002B02D0012B05D075
:1005B00009E00121002000F00FF804E001210120F2
:1005C00000F00AF800BF0220FFF7CCFF0023184616
:1005D0000837BD4680BD000080B582B000AF03463D
:1005E0000A46FB711346BB71FB79002B03D0012B2C
:1005F00000F0AC8054E100224FF40061AB4801F000
:1006000061FCBB79DB09DBB203F00103002B06D0F0
:1006100001224FF40041A54801F054FC05E00022FE
:100620004FF40041A14801F04DFCBB799B09DBB2BE
:1006300003F00103002B06D001224FF480419B48B8
:1006400001F040FC05E000224FF48041974801F0A2
:1006500039FCBB795B09DBB203F00103002B06D048
:1006600001224FF40051914801F02CFC05E00022DA
:100670004FF400518D4801F025FCBB791B09DBB21A
:1006800003F00103002B06D001224FF4805187486C
:1006900001F018FC05E000224FF48051834801F07E
:1006A00011FC0020FFF74EFEBB79DB08DBB203F044
:1006B0000103002B06D001224FF400417B4801F0DA
:1006C00001FC05E000224FF40041784801F0FAFBFC
:1006D000BB799B08DBB203F00103002B06D001229B
:1006E0004FF48041714801F0EDFB05E000224FF42A
:1006F00080416E4801F0E6FBBB795B08DBB203F09A
:100700000103002B06D001224FF40051674801F08D
:10071000D9FB05E000224FF40051644801F0D2FB00
:10072000BB7903F00103002B06D001224FF4805166
:100730005E4801F0C7FB05E000224FF480515B48A2
:1007400001F0C0FB0020FFF7FDFDA9E00022202101
:10075000574801F0B7FBBB79DB09DBB203F00103BB
:10076000002B06D001224FF40041514801F0AAFBB2
:1007700005E000224FF400414D4801F0A3FBBB7996
:100780009B09DBB203F00103002B06D001224FF4DA
:100790008041474801F096FB05E000224FF480417C
:1007A000434801F08FFBBB795B09DBB203F0010327
:1007B000002B06D001224FF400513D4801F082FB8E
:1007C00005E000224FF40051394801F07BFBBB7972
:1007D0001B09DBB203F00103002B06D001224FF40A
:1007E0008051334801F06EFB05E000224FF4805148
:1007F0002F4801F067FB0120FFF7A4FDBB79DB0860
:10080000DBB203F00103002B06D001224FF40041BC
:10081000274801F057FB05E000224FF4004124482F
:1008200001F050FBBB799B08DBB203F00103002B06
:1008300006D001224FF480411D4801F043FB05E042
:1008400000224FF480411A4801F03CFBBB795B0861
:10085000DBB203F00103002B06D001224FF400515C
:10086000134801F02FFB05E000224FF4005110481F
:1008700001F028FBBB7903F00103002B06D0012215
:100880004FF480510A4801F01DFB05E000224FF4AF
:100890008051074801F016FB0120FFF753FD00BF10
:1008A000002318460837BD4680BD00BF000C01403C
:1008B0000008014080B582B000AF03460A46FB71D4
:1008C0001346BB71FB79002B03D0012B00F0AC80E9
:1008D00054E101224FF40061AB4801F0F3FABB7917
:1008E000DB09DBB203F00103002B06D001224FF439
:1008F0000041A54801F0E6FA05E000224FF400416E
:10090000A14801F0DFFABB799B09DBB203F00103D8
:10091000002B06D001224FF480419B4801F0D2FA0F
:1009200005E000224FF48041974801F0CBFABB79F3
:100930005B09DBB203F00103002B06D001224FF468
:100940000051914801F0BEFA05E000224FF4005139
:100950008D4801F0B7FABB791B09DBB203F0010344
:10096000002B06D001224FF48051874801F0AAFAEB
:1009700005E000224FF48051834801F0A3FA0020E3
:10098000FFF7E0FCBB79DB08DBB203F00103002BCF
:1009900006D001224FF400417B4801F093FA05E0B4
:1009A00000224FF40041784801F08CFABB799B0893
:1009B000DBB203F00103002B06D001224FF480418B
:1009C000714801F07FFA05E000224FF480416E4843
:1009D00001F078FABB795B08DBB203F00103002B6E
:1009E00006D001224FF40051674801F06BFA05E090
:1009F00000224FF40051644801F064FABB7903F01F
:100A00000103002B06D001224FF480515E4801F013
:100A100059FA05E000224FF480515B4801F052FA88
:100A20000020FFF78FFCA9E001222021574801F0A8
:100A300049FABB79DB09DBB203F00103002B06D0D6
:100A400001224FF40041514801F03CFA05E0002238
:100A50004FF400414D4801F035FABB799B09DBB2F8
:100A600003F00103002B06D001224FF480414748D8
:100A700001F028FA05E000224FF48041434801F0DC
:100A800021FABB795B09DBB203F00103002B06D02E
:100A900001224FF400513D4801F014FA05E0002214
:100AA0004FF40051394801F00DFABB791B09DBB254
:100AB00003F00103002B06D001224FF4805133488C
:100AC00001F000FA05E000224FF480512F4801F0B8
:100AD000F9F90120FFF736FCBB79DB08DBB203F044
:100AE0000103002B06D001224FF40041274801F0FA
:100AF000E9F905E000224FF40041244801F0E2F951
:100B0000BB799B08DBB203F00103002B06D0012266
:100B10004FF480411D4801F0D5F905E000224FF463
:100B200080411A4801F0CEF9BB795B08DBB203F0D3
:100B30000103002B06D001224FF40051134801F0AD
:100B4000C1F905E000224FF40051104801F0BAF954
:100B5000BB7903F00103002B06D001224FF4805132
:100B60000A4801F0AFF905E000224FF48051074830
:100B700001F0A8F90120FFF7E5FB00BF00231846AC
:100B80000837BD4680BD00BF000C01400008014091
:100B900080B584B000AF03463960FB71FB79002B50
:100BA00002D0012B1BD034E001224FF400611B481E
:100BB00001F088F90023FB730AE0FB7B3A681344D9
:100BC0001B7819460020FFF775FEFB7B0133FB7392
:100BD000FB7B3A6813441B78002BEED119E001220D
:100BE00020210F4801F06EF90023BB730AE0BB7BA4
:100BF0003A6813441B7819460120FFF75BFEBB7B64
:100C00000133BB73BB7B3A6813441B78002BEED1D6
:100C100000BF002318461037BD4680BD000C0140C0
:100C20000008014080B58AB000AF03460A46FB7158
:100C30001346BB80FB79002B02D0012B53D0A3E0DD
:100C400001224FF40061534801F03CF9002387F87A
:100C50002730002387F82630BB88002B24D1302191
:100C60000020FFF727FE8FE0BA884B4BA3FB02134F
:100C7000D9080B469B000B445B00D31A9BB2DAB237
:100C800097F827303032D2B207F128010B4403F82D
:100C9000102CBB88404AA2FB0323DB08BB8097F8DB
:100CA0002730013387F82730BB88002BDCD197F839
:100CB000273087F8263010E097F82630013B07F1FF
:100CC0002802134413F8103C19460020FFF7F2FDE8
:100CD00097F82630013B87F8263097F82630002B0E
:100CE000EAD100BF50E0012220212C4801F0EAF8AF
:100CF000002387F82530002387F82430BB88002B99
:100D000024D130210120FFF7D5FD3DE0BA88224BE8
:100D1000A3FB0213D9080B469B000B445B00D31ABC
:100D20009BB2DAB297F825303032D2B207F12801FF
:100D30000B4403F81C2CBB88174AA2FB0323DB08D7
:100D4000BB8097F82530013387F82530BB88002B0E
:100D5000DCD197F8253087F8243010E097F824305C
:100D6000013B07F12802134413F81C3C19460120EB
:100D7000FFF7A0FD97F82430013B87F8243097F85F
:100D80002430002BEAD100BF002318462837BD4687
:100D900080BD00BF000C0140CDCCCCCC0008014090
:100DA00080B582B000AF0346FB710B46BB711346A2
:100DB0007B71FB79002B02D0012B3AD076E0BB7916
:100DC000002B0AD17B790F2B6DD87B79803BDBB26E
:100DD00019460020FFF700FC65E0BB79012B0AD122
:100DE0007B790F2B5FD87B79403BDBB21946002023
:100DF000FFF7F2FB57E0BB79022B0AD17B790F2B6F
:100E000051D87B79703BDBB219460020FFF7E4FB39
:100E100049E0BB79032B0AD17B790F2B43D87B792F
:100E2000303BDBB219460020FFF7D6FB3BE0012345
:100E30003DE0BB79002B0AD17B790F2B35D87B792C
:100E4000803BDBB219460120FFF7C6FB2DE0BB79E2
:100E5000012B0AD17B790F2B27D87B79403BDBB262
:100E600019460120FFF7B8FB1FE0BB79022B0AD11E
:100E70007B790F2B19D87B79703BDBB219460120A7
:100E8000FFF7AAFB11E0BB79032B0AD17B790F2B6B
:100E90000BD87B79303BDBB219460120FFF79CFB76
:100EA00003E0012303E000BF00E000BF0023184679
:100EB0000837BD4680BD000080B582B000AF012379
:100EC000BB800423BB710123FB713B1D19460F48F6
:100ED00000F062FF4FF40063BB800423BB71012369
:100EE000FB713B1D1946094800F056FF0122012104
:100EF000064800F0E7FF01224FF40061034800F0CC
:100F0000E1FF00BF0837BD4680BD00BF00080140BB
:100F100080B582B000AF78607B68012B03D0B3F559
:100F2000006F06D00CE000220121074800F0CAFF44
:100F300006E000224FF40061034800F0C3FF00BF49
:100F400000BF0837BD4680BD0008014080B582B0B3
:100F500000AF78607B68012B03D0B3F5006F06D03B
:100F60000CE001220121074800F0ACFF06E001225D
:100F70004FF40061034800F0A5FF00BF00BF083731
:100F8000BD4680BD0008014080B582B000AF80231F
:100F9000BB800323BB713B1D1946084800F0FCFED3
:100FA0000223BB800323BB713B1D1946034800F09D
:100FB000F3FE00BF0837BD4680BD00BF00080140FA
:100FC00080B582B000AF03463960FB80FB88022BFE
:100FD00011D0802B00D01DE08021104800F05BFF75
:100FE0000346012B03D13B6801221A7012E03B68D3
:100FF00000221A700EE00221084800F04CFF034660
:10100000012B03D13B6801221A7002E03B680022E9
:101010001A7000BF00BF0837BD4680BD0008014000
:1010200080B584B000AF0346FB71FB79002B02D082
:10103000012B0ED01BE04FF48073BB810423BB73E4
:101040000123FB7307F10C0319460B4800F0A4FEC3
:101050000DE04FF40073BB810423BB730123FB73CA
:1010600007F10C031946044800F096FE00BF00BFCC
:101070001037BD4680BD00BF000C014080B582B076
:1010800000AF03460A46FB711346BB71FB79002B88
:1010900002D0012B25D049E0BB79012B10D10122D0
:1010A0004FF48071234800F00DFF4FF4FA6000F018
:1010B000A3FF00224FF480711E4800F003FF35E0CB
:1010C00001224FF480711B4800F0FCFE40F2CF502B
:1010D00000F092FF00224FF48071164800F0F2FEFB
:1010E00024E0BB79012B10D101224FF4007111488B
:1010F00000F0E8FE4FF4FA6000F07EFF00224FF4AB
:1011000000710C4800F0DEFE0FE001224FF4007188
:10111000084800F0D7FE40F2CF5000F06DFF0022EB
:101120004FF40071034800F0CDFE00BF00BF083748
:10113000BD4680BD000C014080B485B000AF786032
:101140000B46FB700023FB7307E0FB7B7A681344BC
:1011500000221A70FB7B0133FB73FA7BFB789A4207
:10116000F3D300BF1437BD4680BC704780B584B050
:1011700000AF78600B46FB700023FB731CE0FB7B29
:10118000002219460020FFF70BFEFB7B9BB219469D
:101190000020FFF747FD0C490020FFF7F9FCFA7B20
:1011A00013469B0013447A68134419460020FFF746
:1011B000EFFCFB7B0133FB73FA7BFB789A42DED3B7
:1011C00000BF1037BD4680BDA824000880B485B09C
:1011D00000AF786039600023FB730023BB730023EA
:1011E0007B731CE00023FB7313E0FB7B7A681344E2
:1011F0001978BA7B13469B0013443A681A44FB7B68
:10120000D35C994202D17B7B01337B73FB7B01333F
:10121000FB73FB7B032BE8D9BB7B0133BB73BB7B2D
:10122000032BDFD97B7B03F00303DBB2002B04D15C
:101230007B7B002B01D0012300E0002318461437EC
:10124000BD4680BC7047000080B500AF4FF4006021
:10125000FFF77CFE0120FFF779FE614B1B78DBB2C4
:10126000002B0CD100225F495F4801F031F85C4B44
:101270001B78DBB20133DAB2594B1A709FE0584B3E
:101280001B78DBB2012B0CD100225849564801F0E3
:101290001FF8534B1B78DBB20133DAB2504B1A7094
:1012A0008DE04F4B1B78DBB2022B0CD10022504952
:1012B0004D4801F00DF84A4B1B78DBB20133DAB22E
:1012C000474B1A707BE0464B1B78DBB2032B0CD1EB
:1012D00000224849444800F0FBFF414B1B78DBB239
:1012E0000133DAB23E4B1A7069E03D4B1B78DBB23A
:1012F000042B61D13B4B00221A7100223E493A482F
:1013000000F0E6FF364B00221A703C4B01221A70A7
:1013100001223B49344800F0B2FF012231493248F2
:1013200000F0ADFF37492F48FFF750FF0346002B71
:1013300033D0354B1B78DBB2002B06D0324B1B78F9
:10134000DBB2013BDAB2304B1A700120FFF726F90D
:101350002E490120FFF71CFC4FF40060FFF7D8FD79
:1013600001210020FFF78AFE29498020FFF728FE8F
:1013700006E027498020FFF723FE032000F050FEFF
:10138000234B1B78002BF4D100210020FFF776FEC1
:101390004FF40060FFF7DAFD09E00120FFF7FEF8E7
:1013A0001C490120FFF7F4FB0120FFF7B1FD0521E7
:1013B0000C48FFF7C1FE02E0094BFF221A70164BE2
:1013C00000221A70154B00221A70154B00221A7059
:1013D0000120FFF7E3F8134B01221A7000BF80BD14
:1013E0003B00002040000020003801404100002068
:1013F0004200002043000020380000203900002077
:10140000AC2400082400002000000020B8240008BC
:1014100020000020C42400084F00002050000020BD
:10142000510000204E00002080B500AF5B4B1B78C0
:10143000DBB2002B0CD1002259495A4800F048FF7A
:10144000564B1B78DBB20133DAB2544B1A7094E07E
:10145000524B1B78DBB2012B0CD100225249514870
:1014600000F036FF4D4B1B78DBB20133DAB24B4B49
:101470001A7082E0494B1B78DBB2022B0CD10022A0
:101480004A49484800F024FF444B1B78DBB2013343
:10149000DAB2424B1A7070E0404B1B78DBB2032B80
:1014A0000CD1002242493F4800F012FF3B4B1B7811
:1014B000DBB20133DAB2394B1A705EE0374B1B787E
:1014C000DBB2042B56D1364B00221A710022394967
:1014D000344800F0FDFE314B00221A70364B0122D9
:1014E0001A70012235492F4800F0C9FE01222C490B
:1014F0002C4800F0C4FE32492948FFF767FE034636
:10150000002B2BD02F4B1B78DBB2022B06D82D4B98
:101510001B78DBB20133DAB22A4B1A700120FFF7D5
:101520003DF829490120FFF733FB01210120FFF796
:10153000A5FD26490220FFF743FD06E023490220CE
:10154000FFF73EFD032000F06BFD204B1B78002BC6
:10155000F4D100210120FFF791FD06E00120FFF703
:101560001DF81B490120FFF713FB05210C48FFF76D
:10157000E3FD02E0094B00221A70164B00221A709C
:10158000154B00221A70154B00221A700120FFF72C
:1015900005F8134B01221A7000BF80BD3C000020EB
:1015A0004800002000440040490000204A0000207C
:1015B0004B000020380000203A000020AC24000836
:1015C0002400002000000020B82400082100002092
:1015D000C42400084F0000205000002051000020CB
:1015E0004E00002080B400AF0A4B9B69094A43F0CB
:1015F00004039361074B9B69064A43F00803936118
:10160000044B9B69034A43F00103936100BFBD464D
:1016100080BC70470010024090B593B000AFFFF758
:10162000E1FF0020FEF7C6FE0020FEF7B7FF012015
:10163000FEF7C0FE0120FEF7B1FFFEF7A3FDFFF7A6
:10164000A3FCFFF739FC00F0AFFC0020FFF7E8FC3B
:101650000120FFF7E5FC00210020FFF70FFD00212E
:101660000120FFF70BFD4FF4E1333B63002387F8C4
:101670003730202387F83830D14BFB63002387F8BD
:101680003530002387F83430002387F836300C23B8
:1016900087F82C3007F12C031946CA4800F0F8FCF3
:1016A000C84800F04DFE4FF4E133FB61002387F89A
:1016B0002330202387F82430C34BBB62002387F8F4
:1016C0002130002387F82030002387F822300C23B4
:1016D0003B7607F118031946BC4800F0D9FCBB481B
:1016E00000F02EFEBA490020FFF752FA0022012135
:1016F0000020FFF755FBB7490020FFF749FA002209
:1017000002210020FFF74CFB0120FEF747FF0022DB
:1017100000210120FFF744FBAF490120FFF738FA11
:10172000002201210120FFF73BFBAC490120FFF71C
:101730002FFA002202210120FFF732FBA8490120E5
:10174000FFF726FA002203210120FFF729FBA54914
:101750000120FFF71DFA0E2202210120FFF720FBD6
:10176000A14B1B78DBB29BB219460120FFF75AFA56
:101770009E4A07F1100392E80300186004331970C1
:1017800007F1080300221A601A71002387F8473016
:101790000023FB710023BB7100237B71002387F8BA
:1017A000463000233B71002387F84530002387F83B
:1017B0004430002387F843308D4B1B78042BFBD833
:1017C00001A252F823F000BFDD170008A11800089D
:1017D000CB1B0008EB1A00081F1B00088548FEF70A
:1017E00037FD844B1B78FF2B00F0328297F847308F
:1017F0000333DBB21A4602210020FFF7D1FA2A2177
:101800000020FFF757F897F847307A4A127807F127
:1018100048010B4403F8402C97F84730013387F810
:10182000473097F84730032B40F2128207F110023D
:1018300007F1080311461846FEF79AFC0346002BF1
:101840001ED10020FEF7AAFE002202210020FFF791
:10185000A7FA69490020FFF79BF9642000F0E0FB3C
:101860000020FEF79BFE654B00221A70644B00229D
:101870001A70644B00221A705D4B01221A700BE043
:101880000020FEF78BFE002202210020FFF788FADD
:101890005D490020FFF77CF9002387F84730D7E146
:1018A000574B1B78002B36D10120FEF777FE002224
:1018B00000210120FFF774FA47490120FFF768F97A
:1018C000002201210120FFF76BFA44490120FFF7B4
:1018D0005FF9002202210120FFF762FA404901204E
:1018E000FFF756F9002203210120FFF759FA3D497D
:1018F0000120FFF74DF90E2202210120FFF750FAD7
:10190000394B1B78DBB29BB219460120FFF78AF9ED
:101910003B4B01221A70002387F84530002387F8DB
:101920004430002387F84330364B1B78002B26D1F8
:10193000002200210020FFF733FA34490020FFF78E
:1019400027F9002201210020FFF72AFA3049002060
:10195000FFF71EF9002202210020FFF721FA2D498E
:101960000020FFF715F9002203210020FFF718FAE5
:1019700029490020FFF70CF9224B01221A701F4B56
:101980001B78002B40F0AF80FB1D1846FEF760FC73
:10199000FB79FF2B00F0A780184B01221A70FB790E
:1019A000313B032B00F28E8001A252F823F000BFDE
:1019B0001D1A0008451A00084D1A0008551A00089B
:1019C0004912000800380140291400080044004072
:1019D000D4240008E0240008F424000804250008AA
:1019E000102500082025000800000020E42500083C
:1019F0004E00002090000020302500084F000020FD
:101A00005000002051000020442500085425000803
:101A10006425000874250008802500080020FEF7D2
:101A2000BDFD04218B48FFF7A1FB322000F0F8FA3E
:101A3000894B00221A70894B00221A70884B0022B1
:101A40001A7051E0874B02221A704DE0854B032239
:101A50001A7049E00020FEF7A1FD83490020FFF73E
:101A600097F8002201210020FFF79AF97F49002012
:101A7000FFF78EF8C82000F0D3FA002387F8423031
:101A8000002387F842300FE097F8422013469B006E
:101A90001344704A134405211846FFF74DFB97F88D
:101AA0004230013387F8423097F84230032BEBD9AC
:101AB000694B00221A70694B00221A70684B002291
:101AC0001A7011E00020FEF769FD69490020FFF758
:101AD0005FF8614B00221A70604B00221A70604B55
:101AE00000221A70B5E000BFB3E00020FEF756FDFB
:101AF00060490020FFF74CF80CE07B1D1846FEF70C
:101B0000A7FB7B79FF2B05D0012387F84430554B89
:101B100004221A7097F84430002BEED099E0002090
:101B2000FEF73CFD54490020FFF732F848E03B1D2A
:101B30001846FEF78DFB3B79FF2B41D07B79A3F153
:101B4000300297F846103C79424813469B001344F4
:101B500003440B4422461A703B7919460020FEF7D5
:101B6000A9FE97F84630013387F8463097F846309B
:101B7000032B25D90020FEF711FD002200210020B3
:101B8000FFF70EF93D490020FFF702F8002201217E
:101B90000020FFF705F9002387F84630012387F876
:101BA00045300020FEF7FAFC2B4B00221A702B4B1D
:101BB00000221A702A4B00221A702A4B01221A7036
:101BC00097F84530002BB2D043E00020FEF7E6FC4A
:101BD00028490020FEF7DCFF35E0BB1D1846FEF764
:101BE00037FBBB79FF2B2ED0002387F84130002331
:101BF00087F8413011E0BB79A3F1300297F841102A
:101C0000144813469B00134403440B4400221A70EB
:101C100097F84130013387F8413097F84130032B72
:101C2000E9D90020FEF7BAFC012387F843300A4BBC
:101C300000221A70094B00221A70094B00221A70F8
:101C4000084B01221A7097F84330002BC5D000E0F2
:101C500000BFB1E5240000204F000020500000200C
:101C6000510000204E000020902500089C2500080F
:101C7000AC250008BC250008CC250008D8250008A4
:101C80000D488546AFF300800C480D490D4A0023EE
:101C900002E0D458C4500433C4188C42F9D30A4A21
:101CA0000A4C002301E013600432A242FBD300F08F
:101CB000CBFBFFF7B1FCFEE700280020000000206E
:101CC00004000020202600080400002094000020CA
:101CD000FEE780B483B000AF0346FB80FB88802B17
:101CE00042D0802B11DC082B36D0082B06DC022BCF
:101CF0002ED0042B2ED0012B28D047E0202B2FD024
:101D0000402B2FD0102B29D040E0B3F5006F33D0FB
:101D1000B3F5006F09DCB3F5007F29D0B3F5806F10
:101D200028D0B3F5807F21D030E0B3F5005F27D015
:101D3000B3F5005F03DCB3F5805F1FD026E0B3F599
:101D4000804F1FD0B3F5004F1ED01FE000231EE0D0
:101D500004231CE008231AE00C2318E0102316E0EB
:101D6000142314E0182312E01C2310E000230EE0DB
:101D700004230CE008230AE00C2308E0102306E00B
:101D8000142304E0182302E01C2300E0002318467B
:101D90000C37BD4680BC704790B585B000AF786009
:101DA00039600023BB600023FB733B681B88FF2B5B
:101DB00001D87B6801E07B680433BB603B681B880B
:101DC0001846FFF786FF03461A460F239340DA436F
:101DD000BB681B681A40BB681A603B689B78072B7E
:101DE0000BD03B689B78062B07D03B689B78052B74
:101DF00003D03B689B78042B0ED13B689B78043B57
:101E00009B005AB23B68DB785BB213435BB2DBB238
:101E100003F00F03FB732CE03B689B78012B03D08E
:101E20003B689B78002B07D13B689B789B00DBB21B
:101E300003F00F03FB731CE03B689B78082B02D177
:101E40000423FB7315E00823FB733B689B78022B8C
:101E500007D17B68DB683A6812881A437B68DA60CE
:101E600007E07B68DB683A681288D2431A407B68D7
:101E7000DA60FC7B3B681B881846FFF72AFF0346A5
:101E800004FA03F2BB681B681A43BB681A6000BF00
:101E90001437BD4690BD80B485B000AF78600B4666
:101EA0007B807B689A687B881340002B02D00123DB
:101EB000FB7301E00023FB73FB7B18461437BD4620
:101EC00080BC704780B483B000AF78600B467B80E5
:101ED00013467B707B78002B03D07A887B681A616D
:101EE00002E07A887B685A6100BF0C37BD4680BC2F
:101EF0007047000080B400AF0A4B5B689B0803F09A
:101F00000303012B06D0012B02D3022B04D005E0E2
:101F1000054B03E0054B01E0044BFFE71846BD46C7
:101F200080BC70470010024000127A000024F400C8
:101F300080B500AFFFF7DEFF0146054B5B681B096C
:101F400003F00F03034AD35C21FA03F3184680BD64
:101F5000001002400826000880B500AFFFF7E8FF38
:101F60000146054B5B681B0A03F00703034AD35C79
:101F700021FA03F3184680BD001002400026000835
:101F800080B500AFFFF7D4FF0146054B5B68DB0A65
:101F900003F00703034AD35C21FA03F3184680BD1C
:101FA000001002400026000880B400AF114BDB692E
:101FB000104A43F00103D3614FF0804307229A6235
:101FC0004FF080434CF25032DA624FF080431B688E
:101FD0004FF0804243F00103136000BF4FF0804395
:101FE0001B6903F00103002BF8D000BFBD4680BC85
:101FF000704700BF0010024080B483B000AF78602B
:102000004FF0804300225A6200BF4FF080435A6A6B
:102010007B689A42F9D300BF0C37BD4680BC70473D
:1020200080B584B000AF78600023FB6006E04FF419
:102030007A70FFF7E1FFFB680133FB60FA687B68A9
:102040009A42F4DB00BF1037BD4680BD80B483B038
:1020500000AF78607B680B4A934201D100230CE00B
:102060007B68094A934201D1012306E07B68074A55
:10207000934201D1022300E0032318460C37BD46EA
:1020800080BC7047003801400044004000480040D8
:10209000B0B584B000AF786039607B68614A934224
:1020A0000ED1614A3B6814461D460FCD0FC42B6804
:1020B00023605E4B9B695D4A43F48043936126E055
:1020C0007B685B4A93420FD1574B3A6803F1140483
:1020D00015460FCD0FC42B682360544BDB69534A60
:1020E00043F40033D36112E07B68524A93420ED12D
:1020F0004D4B3A6803F1280415460FCD0FC42B68E9
:1021000023604A4BDB69494A43F48023D3617B68EF
:10211000DB6843F400527B68DA607B68DB683A680E
:1021200012781A437B68DA607B68DB683A68127A57
:102130001A437B68DA607B68DB683A68527A1A4334
:102140007B68DA607B681B693A68927A1A437B681D
:102150001A617B685B693A68D27A1A437B685A6174
:102160007B68304A934203D1FFF70AFFF86002E030
:10217000FFF7F2FEF8603B685B681B01FA68B2FB90
:10218000F3F31901FA6813469B0013449A001A44AA
:102190003B685B689B00B2FBF3F23B685B681B012A
:1021A000F868B0FBF3F3642000FB03F3D31A1B01C0
:1021B000214AA2FB03235B0903F00F030B43BB601F
:1021C0007B68BA689A603B681B7B002B26D07B68D3
:1021D000DB683A68127B1A437B68DA607B68114AD5
:1021E000934206D1154B1B68144A43F02003136039
:1021F00014E07B680E4A934206D1104B1B680F4ACD
:1022000043F04003136009E07B680A4A934205D11A
:102210000A4B1B68094A43F08003136000BF103764
:10222000BD46B0BD003801405400002000100240FF
:1022300000440040004800401F85EB5104E100E0ED
:1022400080B586B000AFF860B9601346FB71FB79CA
:10225000012B06D100BFFB681B6803F08003002B35
:10226000F9D0F868FFF7F2FE0346FB75BB681B88E0
:10227000DAB2FB685A6000BF1837BD4680BD80B532
:1022800086B000AFF860B9601346FB710D23BB82C6
:102290000023FB750AE0FB7DBA681344FA791946FE
:1022A000F868FFF7CDFFFB7D0133FB75FB7DBA6856
:1022B00013441B78002BEED1FA7907F11403194669
:1022C000F868FFF7BDFF00BF1837BD4680BD0000AE
:1022D00080B586B000AFF860B9601346FB71FB793A
:1022E000012B06D100BFFB681B6803F02003002B05
:1022F000F9D0F868FFF7AAFE0346FB75FA7D0F498F
:1023000013469B0013449B000B4409331B78002B9E
:1023100007D1FB685B689BB2DBB29AB2BB681A80DC
:1023200007E0FB685B689BB203F07F039AB2BB686F
:102330001A8000BF1837BD4680BD00BF5400002082
:1023400080B584B000AF78607B682B4A934218D187
:102350004FF40073BB810623BB730123FB7307F1AA
:102360000C0319462548FFF717FD4FF48063BB8126
:102370000823BB7307F10C0319462048FFF70CFD37
:1023800036E07B681E4A934216D10423BB810623A4
:10239000BB730123FB7307F10C0319461748FFF7C2
:1023A000FBFC0823BB810823BB7307F10C03194610
:1023B0001248FFF7F1FC1BE07B68124A934217D1E9
:1023C0004FF48063BB810623BB730123FB7307F1CA
:1023D0000C0319460C48FFF7DFFC4FF40063BB8188
:1023E0000823BB7307F10C0319460748FFF7D4FC19
:1023F00000BF1037BD4680BD0038014000080140D5
:102400000044004000480040000C014080B500AF8F
:10241000024B1B69984700BF80BD00BF54000020DD
:1024200080B500AF024B5B6A984700BF80BD00BF1C
:102430005400002080B500AF024B9B6B984700BF53
:1024400080BD00BF5400002070B500250C4E0D4C1F
:10245000A41BA410A54209D100F01AF800250A4EC9
:102460000A4CA41BA410A54205D170BD56F8253016
:1024700098470135EEE756F8253098470135F2E7E1
:102480001826000818260008182600081C26000830
:10249000F8B500BFF8BC08BC9E467047F8B500BF51
:0824A000F8BC08BC9E46704721
:1024A8002D200000596F75722049443A2000000021
:1024B800456C696769626C6520494400556E7265B0
:1024C80067697374657265642049440048656C6C7B
:1024D8006F2041646D696E00456E746572205061AD
:1024E8007373776F72643A200000000057656C635D
:1024F8006F6D6520746F206F757200005061726B8C
:10250800696E67203A290000456D70747920536C14
:102518006F74733A000000005061737320796F750F
:102528007220636172640000436F72726563742085
:1025380050617373776F72640000000057726F6E9A
:10254800672050617373776F72640000312D2044E7
:102558006973706C6179204944730000322D2044FE
:10256800656C65746520494400000000332D2041E6
:102578006464204944000000342D2044656C65746F
:102588006520616C6C0000004944732064656C65CB
:10259800746564005375636365737366756C6C79F1
:1025A80000000000496E76616C6964204F707469A0
:1025B8006F6E0000456E74657220496E6465783AE6
:1025C80020000000456E7465722049443A200000DE
:1025D800456E7465726564204944000031323334B5
:1025E8000000000023302A39383736353433323189
:1025F80001020810804020000000000001020304CE
:10260800000000000000000001020304060708099A
:042618005501000860
:04261C003101000880
:0426200003000000B3
:0400000508001C8152
:00000001FF
