:020000040800F2
:1000000000280020CD1B00081D1C00081D1C000836
:100010001D1C00081D1C00081D1C0008000000001D
:100020000000000000000000000000001D1C00088F
:100030001D1C0008000000001D1C00081D1C0008FD
:100040001D1C00081D1C00081D1C00081D1C0008AC
:100050001D1C00081D1C00081D1C00081D1C00089C
:100060001D1C00081D1C00081D1C00081D1C00088C
:100070001D1C00081D1C00081D1C00081D1C00087C
:100080001D1C00081D1C00081D1C00081D1C00086C
:100090001D1C00081D1C00081D1C00081D1C00085C
:1000A0001D1C00081D1C00081D1C00081D1C00084C
:1000B0001D1C00081D1C00081D1C00081D1C00083C
:1000C0001D1C00081D1C00081D1C00081D1C00082C
:1000D0001D1C0008592300086D2300088123000817
:1000E0001D1C00081D1C0008000000001D1C00084D
:1000F0001D1C00081D1C00081D1C00081D1C0008FC
:100100001D1C00081D1C00081D1C00081D1C0008EB
:100110001D1C00081D1C00081D1C00081D1C0008DB
:100120001D1C00081D1C00081D1C00081D1C0008CB
:1001300010B5054C237833B9044B13B10448AFF321
:1001400000800123237010BD040000200000000087
:10015000DC23000808B5034B1BB103490348AFF388
:10016000008008BD0000000008000020DC2300081B
:1001700010F8012B11F8013B012A28BF9A42F7D051
:10018000D01A704780B582B000AF0123BB80042332
:10019000BB710223FB713B1D19462C4801F0A2FDE7
:1001A0000223BB800423BB710223FB713B1D194654
:1001B000264801F097FD0823BB800423BB7102236E
:1001C000FB713B1D1946214801F08CFD1023BB80BB
:1001D0000423BB710223FB713B1D19461B4801F030
:1001E00081FD8023BB800323BB713B1D194617484B
:1001F00001F078FD4023BB800323BB713B1D1946F2
:10020000124801F06FFD2023BB800323BB713B1D0F
:1002100019460E4801F066FD002201210B4801F04D
:10022000F7FD00220221094801F0F2FD0022082119
:10023000064801F0EDFD00221021044801F0E8FD20
:10024000002318460837BD4680BD00BF000C0140A2
:1002500080B584B000AF78607B68FF221A700123FC
:100260003B737B68002B5DD00023FB7356E0FB7B68
:10027000304AD35C9BB2012219462F4801F0C8FDD9
:100280000023BB7338E0BB7B2C4AD35C9BB219467E
:10029000294801F0A6FD03467B737B7B012B28D107
:1002A000142000F05FF9BB7B244AD35C9BB2194653
:1002B000214801F096FD03467B7309E0BB7B1F4A92
:1002C000D35C9BB219461C4801F08BFD03467B733F
:1002D0007B7B012BF2D0FA7BB97B194813465B007C
:1002E000134403440B441A787B681A7000233B7351
:1002F00005E0BB7B0133BB73BB7B022BC3D9FB7B0C
:100300000C4AD35C9BB2002219460B4801F080FDD9
:100310003B7B002B08D0FB7B0133FB73FB7B032B68
:10032000A5D902E0012301E000BF002318461037E1
:10033000BD4680BD44250008000C0140482500084A
:100340003825000880B582B000AF0346FB71FB7909
:10035000002B02D0012B13D023E001224FF4806147
:10036000124801F055FD012000F0FCF800224FF486
:1003700080610E4801F04CFD022000F0F3F810E01F
:10038000012240210A4801F043FD012000F0EAF873
:1003900000224021064801F03BFD022000F0E2F877
:1003A00000BF002318460837BD4680BD000C014041
:1003B0000008014080B584B000AF0346FB71FB79B3
:1003C000002B02D0012B63D0C3E04FF40063BB814C
:1003D0000423BB730123FB7307F10C0319465F4829
:1003E00001F080FC4FF48063BB810423BB730123C5
:1003F000FB7307F10C031946584801F073FC4FF4E6
:100400008053BB810423BB730123FB7307F10C03EF
:100410001946524801F066FC4FF40053BB81042397
:10042000BB730123FB7307F10C0319464B4801F022
:1004300059FC4FF48043BB810423BB730123FB733E
:1004400007F10C031946454801F04CFC4FF40043FA
:10045000BB810423BB730123FB7307F10C03194613
:100460003E4801F03FFC0221002000F0B5F82821B1
:10047000002000F0B1F80E21002000F0ADF80621B8
:10048000002000F0A9F80121002000F0A5F860E0AC
:100490002023BB810423BB730123FB7307F10C03EF
:1004A00019462F4801F01EFC4023BB810423BB7377
:1004B0000123FB7307F10C031946294801F012FCD4
:1004C0004FF48053BB810423BB730123FB7307F1FB
:1004D0000C031946224801F005FC4FF40053BB8180
:1004E0000423BB730123FB7307F10C0319461C485B
:1004F00001F0F8FB4FF48043BB810423BB7301235D
:10050000FB7307F10C031946154801F0EBFB4FF4A0
:100510000043BB810423BB730123FB7307F10C036E
:1005200019460F4801F0DEFB0221012000F054F8CB
:100530002821012000F050F80E21012000F04CF895
:100540000621012000F048F80121012000F044F8C4
:1005500000BF002318461037BD4680BD000C014087
:100560000008014080B485B000AF78600023FB60D4
:100570000BE00023BB6002E0BB680133BB60BB68DB
:10058000FE2BF9D9FB680133FB60FA687B689A425D
:10059000EFD300BF1437BD4680BC704780B582B032
:1005A00000AF0346FB71FB79002B02D0012B05D075
:1005B00009E00121002000F00FF804E001210120F2
:1005C00000F00AF800BF0220FFF7CCFF0023184616
:1005D0000837BD4680BD000080B582B000AF03463D
:1005E0000A46FB711346BB71FB79002B03D0012B2C
:1005F00000F0AC8054E100224FF40061AB4801F000
:1006000007FCBB79DB09DBB203F00103002B06D04A
:1006100001224FF40041A54801F0FAFB05E0002259
:100620004FF40041A14801F0F3FBBB799B09DBB219
:1006300003F00103002B06D001224FF480419B48B8
:1006400001F0E6FB05E000224FF48041974801F0FD
:10065000DFFBBB795B09DBB203F00103002B06D0A3
:1006600001224FF40051914801F0D2FB05E0002235
:100670004FF400518D4801F0CBFBBB791B09DBB275
:1006800003F00103002B06D001224FF4805187486C
:1006900001F0BEFB05E000224FF48051834801F0D9
:1006A000B7FB0020FFF74EFEBB79DB08DBB203F09F
:1006B0000103002B06D001224FF400417B4801F0DA
:1006C000A7FB05E000224FF40041784801F0A0FBB1
:1006D000BB799B08DBB203F00103002B06D001229B
:1006E0004FF48041714801F093FB05E000224FF484
:1006F00080416E4801F08CFBBB795B08DBB203F0F4
:100700000103002B06D001224FF40051674801F08D
:100710007FFB05E000224FF40051644801F078FBB4
:10072000BB7903F00103002B06D001224FF4805166
:100730005E4801F06DFB05E000224FF480515B48FC
:1007400001F066FB0020FFF7FDFDA9E0002220215B
:10075000574801F05DFBBB79DB09DBB203F0010315
:10076000002B06D001224FF40041514801F050FB0C
:1007700005E000224FF400414D4801F049FBBB79F0
:100780009B09DBB203F00103002B06D001224FF4DA
:100790008041474801F03CFB05E000224FF48041D6
:1007A000434801F035FBBB795B09DBB203F0010381
:1007B000002B06D001224FF400513D4801F028FBE8
:1007C00005E000224FF40051394801F021FBBB79CC
:1007D0001B09DBB203F00103002B06D001224FF40A
:1007E0008051334801F014FB05E000224FF48051A2
:1007F0002F4801F00DFB0120FFF7A4FDBB79DB08BA
:10080000DBB203F00103002B06D001224FF40041BC
:10081000274801F0FDFA05E000224FF4004124488A
:1008200001F0F6FABB799B08DBB203F00103002B61
:1008300006D001224FF480411D4801F0E9FA05E09D
:1008400000224FF480411A4801F0E2FABB795B08BC
:10085000DBB203F00103002B06D001224FF400515C
:10086000134801F0D5FA05E000224FF4005110487A
:1008700001F0CEFABB7903F00103002B06D0012270
:100880004FF480510A4801F0C3FA05E000224FF40A
:100890008051074801F0BCFA0120FFF753FD00BF6B
:1008A000002318460837BD4680BD00BF000C01403C
:1008B0000008014080B582B000AF03460A46FB71D4
:1008C0001346BB71FB79002B03D0012B00F0AC80E9
:1008D00054E101224FF40061AB4801F099FABB7971
:1008E000DB09DBB203F00103002B06D001224FF439
:1008F0000041A54801F08CFA05E000224FF40041C8
:10090000A14801F085FABB799B09DBB203F0010332
:10091000002B06D001224FF480419B4801F078FA69
:1009200005E000224FF48041974801F071FABB794D
:100930005B09DBB203F00103002B06D001224FF468
:100940000051914801F064FA05E000224FF4005193
:100950008D4801F05DFABB791B09DBB203F001039E
:10096000002B06D001224FF48051874801F050FA45
:1009700005E000224FF48051834801F049FA00203D
:10098000FFF7E0FCBB79DB08DBB203F00103002BCF
:1009900006D001224FF400417B4801F039FA05E00E
:1009A00000224FF40041784801F032FABB799B08ED
:1009B000DBB203F00103002B06D001224FF480418B
:1009C000714801F025FA05E000224FF480416E489D
:1009D00001F01EFABB795B08DBB203F00103002BC8
:1009E00006D001224FF40051674801F011FA05E0EA
:1009F00000224FF40051644801F00AFABB7903F079
:100A00000103002B06D001224FF480515E4801F013
:100A1000FFF905E000224FF480515B4801F0F8F93E
:100A20000020FFF78FFCA9E001222021574801F0A8
:100A3000EFF9BB79DB09DBB203F00103002B06D031
:100A400001224FF40041514801F0E2F905E0002293
:100A50004FF400414D4801F0DBF9BB799B09DBB253
:100A600003F00103002B06D001224FF480414748D8
:100A700001F0CEF905E000224FF48041434801F037
:100A8000C7F9BB795B09DBB203F00103002B06D089
:100A900001224FF400513D4801F0BAF905E000226F
:100AA0004FF40051394801F0B3F9BB791B09DBB2AF
:100AB00003F00103002B06D001224FF4805133488C
:100AC00001F0A6F905E000224FF480512F4801F013
:100AD0009FF90120FFF736FCBB79DB08DBB203F09E
:100AE0000103002B06D001224FF40041274801F0FA
:100AF0008FF905E000224FF40041244801F088F905
:100B0000BB799B08DBB203F00103002B06D0012266
:100B10004FF480411D4801F07BF905E000224FF4BD
:100B200080411A4801F074F9BB795B08DBB203F02D
:100B30000103002B06D001224FF40051134801F0AD
:100B400067F905E000224FF40051104801F060F908
:100B5000BB7903F00103002B06D001224FF4805132
:100B60000A4801F055F905E000224FF4805107488A
:100B700001F04EF90120FFF7E5FB00BF0023184606
:100B80000837BD4680BD00BF000C01400008014091
:100B900080B584B000AF03463960FB71FB79002B50
:100BA00002D0012B1BD034E001224FF400611B481E
:100BB00001F02EF90023FB730AE0FB7B3A68134433
:100BC0001B7819460020FFF775FEFB7B0133FB7392
:100BD000FB7B3A6813441B78002BEED119E001220D
:100BE00020210F4801F014F90023BB730AE0BB7BFE
:100BF0003A6813441B7819460120FFF75BFEBB7B64
:100C00000133BB73BB7B3A6813441B78002BEED1D6
:100C100000BF002318461037BD4680BD000C0140C0
:100C20000008014080B58AB000AF03460A46FB7158
:100C30001346BB80FB79002B02D0012B53D0A3E0DD
:100C400001224FF40061534801F0E2F8002387F8D5
:100C50002730002387F82630BB88002B24D1302191
:100C60000020FFF727FE8FE0BA884B4BA3FB02134F
:100C7000D9080B469B000B445B00D31A9BB2DAB237
:100C800097F827303032D2B207F128010B4403F82D
:100C9000102CBB88404AA2FB0323DB08BB8097F8DB
:100CA0002730013387F82730BB88002BDCD197F839
:100CB000273087F8263010E097F82630013B07F1FF
:100CC0002802134413F8103C19460020FFF7F2FDE8
:100CD00097F82630013B87F8263097F82630002B0E
:100CE000EAD100BF50E0012220212C4801F090F809
:100CF000002387F82530002387F82430BB88002B99
:100D000024D130210120FFF7D5FD3DE0BA88224BE8
:100D1000A3FB0213D9080B469B000B445B00D31ABC
:100D20009BB2DAB297F825303032D2B207F12801FF
:100D30000B4403F81C2CBB88174AA2FB0323DB08D7
:100D4000BB8097F82530013387F82530BB88002B0E
:100D5000DCD197F8253087F8243010E097F824305C
:100D6000013B07F12802134413F81C3C19460120EB
:100D7000FFF7A0FD97F82430013B87F8243097F85F
:100D80002430002BEAD100BF002318462837BD4687
:100D900080BD00BF000C0140CDCCCCCC0008014090
:100DA00080B582B000AF0346FB710B46BB711346A2
:100DB0007B71FB79002B02D0012B3AD076E0BB7916
:100DC000002B0AD17B790F2B6DD87B79803BDBB26E
:100DD00019460020FFF700FC65E0BB79012B0AD122
:100DE0007B790F2B5FD87B79403BDBB21946002023
:100DF000FFF7F2FB57E0BB79022B0AD17B790F2B6F
:100E000051D87B79703BDBB219460020FFF7E4FB39
:100E100049E0BB79032B0AD17B790F2B43D87B792F
:100E2000303BDBB219460020FFF7D6FB3BE0012345
:100E30003DE0BB79002B0AD17B790F2B35D87B792C
:100E4000803BDBB219460120FFF7C6FB2DE0BB79E2
:100E5000012B0AD17B790F2B27D87B79403BDBB262
:100E600019460120FFF7B8FB1FE0BB79022B0AD11E
:100E70007B790F2B19D87B79703BDBB219460120A7
:100E8000FFF7AAFB11E0BB79032B0AD17B790F2B6B
:100E90000BD87B79303BDBB219460120FFF79CFB76
:100EA00003E0012303E000BF00E000BF0023184679
:100EB0000837BD4680BD000080B582B000AF012379
:100EC000BB800423BB710123FB713B1D19460F48F6
:100ED00000F008FF4FF40063BB800423BB710123C3
:100EE000FB713B1D1946094800F0FCFE012201215F
:100EF000064800F08DFF01224FF40061034800F026
:100F000087FF00BF0837BD4680BD00BF0008014015
:100F100080B582B000AF78607B68012B03D0B3F559
:100F2000006F06D00CE000220121074800F070FF9E
:100F300006E000224FF40061034800F069FF00BFA3
:100F400000BF0837BD4680BD0008014080B582B0B3
:100F500000AF78607B68012B03D0B3F5006F06D03B
:100F60000CE001220121074800F052FF06E00122B7
:100F70004FF40061034800F04BFF00BF00BF08378B
:100F8000BD4680BD0008014080B582B000AF80231F
:100F9000BB800323BB713B1D1946084800F0A2FE2D
:100FA0000223BB800323BB713B1D1946034800F09D
:100FB00099FE00BF0837BD4680BD00BF0008014054
:100FC00080B582B000AF03463960FB80FB88022BFE
:100FD00011D0802B00D01DE08021104800F001FFCF
:100FE0000346012B03D13B6801221A7012E03B68D3
:100FF00000221A700EE00221084800F0F2FE0346BB
:10100000012B03D13B6801221A7002E03B680022E9
:101010001A7000BF00BF0837BD4680BD0008014000
:1010200080B584B000AF0346FB71FB79002B02D082
:10103000012B0ED01BE04FF48073BB810423BB73E4
:101040000123FB7307F10C0319460B4800F04AFE1D
:101050000DE04FF40073BB810423BB730123FB73CA
:1010600007F10C031946044800F03CFE00BF00BF26
:101070001037BD4680BD00BF000C014080B582B076
:1010800000AF03460A46FB711346BB71FB79002B88
:1010900002D0012B25D049E0BB79012B10D10122D0
:1010A0004FF48071234800F0B3FE4FF4FA6000F073
:1010B00049FF00224FF480711E4800F0A9FE35E080
:1010C00001224FF480711B4800F0A2FE40F2CF5085
:1010D00000F038FF00224FF48071164800F098FEAF
:1010E00024E0BB79012B10D101224FF4007111488B
:1010F00000F08EFE4FF4FA6000F024FF00224FF45F
:1011000000710C4800F084FE0FE001224FF40071E2
:10111000084800F07DFE40F2CF5000F013FF00229F
:101120004FF40071034800F073FE00BF00BF0837A2
:10113000BD4680BD000C014080B485B000AF786032
:101140000B46FB700023FB7307E0FB7B7A681344BC
:1011500000221A70FB7B0133FB73FA7BFB789A4207
:10116000F3D300BF1437BD4680BC704780B584B050
:1011700000AF78600B46FB700023FB731CE0FB7B29
:10118000002219460020FFF70BFEFB7B9BB219469D
:101190000020FFF747FD0C490020FFF7F9FCFA7B20
:1011A00013469B0013447A68134419460020FFF746
:1011B000EFFCFB7B0133FB73FA7BFB789A42DED3B7
:1011C00000BF1037BD4680BDF423000880B485B051
:1011D00000AF786039600023FB7300237B7300232A
:1011E000BB737B7B032B20D80023FB7313E0FB7BBB
:1011F0007A68134419787A7B13469B0013443A6843
:101200001A44FB7BD35C994202D1BB7B0133BB7395
:10121000FB7B0133FB73FB7B032BE8D9BB7B042BEC
:1012200001D1012301E00023FFE718461437BD4632
:1012300080BC704780B500AF4FF40060FFF786FEBA
:101240000120FFF783FE604B1B78DBB2002B0CD133
:1012500000225E495E4800F0E1FF5B4B1B78DBB289
:101260000133DAB2584B1A709FE0574B1B78DBB250
:10127000012B0CD100225749554800F0CFFF524BAB
:101280001B78DBB20133DAB24F4B1A708DE04E4B54
:101290001B78DBB2022B0CD100224F494C4800F0E6
:1012A000BDFF494B1B78DBB20133DAB2464B1A70F3
:1012B0007BE0454B1B78DBB2032B0CD10022474966
:1012C000434800F0ABFF404B1B78DBB20133DAB28E
:1012D0003D4B1A7069E03C4B1B78DBB2042B61D1AB
:1012E0003A4B00221A7100223D49394800F096FF1E
:1012F000354B00221A703B4B01221A7001223A49E9
:10130000334800F062FF01223049314800F05DFFB0
:1013100036492E48FFF75AFF0346002B33D0344B93
:101320001B78DBB2002B06D0314B1B78DBB2013BC4
:10133000DAB22F4B1A700120FFF730F92D49012046
:10134000FFF726FC4FF40060FFF7E2FD01210020CB
:10135000FFF794FE28498020FFF732FE06E0264979
:101360008020FFF72DFE0A2000F000FE224B1B78A4
:10137000002BF4D100210020FFF780FE4FF4006025
:10138000FFF7E4FD09E00120FFF708F91B49012000
:10139000FFF7FEFB0120FFF7BBFD05210B48FFF720
:1013A000CBFE02E0084BFF221A70154B00221A7088
:1013B000144B00221A70144B00221A70134B012296
:1013C0001A7000BF80BD00BF3B000020400000201D
:1013D000003801404100002042000020430000206E
:1013E0003800002039000020F823000824000020E5
:1013F0000000002004240008200000201024000821
:101400004F00002050000020510000204E0000201E
:1014100080B500AF5A4B1B78DBB2002B0CD10022F9
:101420005849594800F0FAFE554B1B78DBB201339E
:10143000DAB2534B1A7094E0514B1B78DBB2012B9C
:101440000CD100225149504800F0E8FE4C4B1B786B
:10145000DBB20133DAB24A4B1A7082E0484B1B7898
:10146000DBB2022B0CD100224949474800F0D6FEDE
:10147000434B1B78DBB20133DAB2414B1A7070E098
:101480003F4B1B78DBB2032B0CD1002241493E4875
:1014900000F0C4FE3A4B1B78DBB20133DAB2384BB2
:1014A0001A705EE0364B1B78DBB2042B56D1354BFD
:1014B00000221A7100223849334800F0AFFE304B49
:1014C00000221A70354B01221A70012234492E482D
:1014D00000F07BFE01222B492B4800F076FE3149BB
:1014E0002848FFF773FE0346002B2BD02E4B1B78AA
:1014F000DBB2022B06D82C4B1B78DBB20133DAB2FD
:10150000294B1A700120FFF749F828490120FFF7FD
:101510003FFB01210120FFF7B1FD25490220FFF724
:101520004FFD06E022490220FFF74AFD0A2000F0A5
:101530001DFD1F4B1B78002BF4D100210120FFF76C
:101540009DFD06E00120FFF729F81A490120FFF769
:101550001FFB05210B48FFF7EFFD02E0084B0022BF
:101560001A70154B00221A70144B00221A70144B7B
:1015700000221A70134B01221A7000BF80BD00BFF9
:101580003C000020480000200044004049000020AA
:101590004A0000204B000020380000203A000020C4
:1015A000F823000824000020000000200424000884
:1015B00021000020102400084F00002050000020CF
:1015C000510000204E00002080B400AF0A4B9B6900
:1015D000094A43F004039361074B9B69064A43F0B1
:1015E00008039361044B9B69034A43F00103936131
:1015F00000BFBD4680BC70470010024090B593B05C
:1016000000AFFFF7E1FF0020FEF7D4FE0020FEF759
:10161000C5FF0120FEF7CEFE0120FEF7BFFFFEF75B
:10162000B1FDFFF7B1FCFFF747FC00F063FC0020C1
:10163000FFF7F6FC0120FFF7F3FC00210020FFF785
:101640001DFD00210120FFF719FD4FF4E1333B633D
:10165000002387F83730202387F83830D74BFB63D7
:10166000002387F83530002387F83430002387F8CB
:1016700036300C2387F82C3007F12C031946D0485C
:1016800000F0ACFCCE4800F001FE4FF4E133FB610A
:10169000002387F82330202387F82430C94BBB620E
:1016A000002387F82130002387F82030002387F8B3
:1016B00022300C233B7607F118031946C24800F08C
:1016C0008DFCC14800F0E2FDC0490020FFF760FA40
:1016D000002201210020FFF763FBBD490020FFF736
:1016E00057FA002202210020FFF75AFBB94A07F1FE
:1016F000100392E8030018600433197007F108031F
:1017000000221A601A71002387F847300023FB710A
:101710000023BB7100237B71002387F84630002330
:101720003B71002387F84530002387F844300023BD
:1017300087F84330A84B1B78042BFBD801A252F842
:1017400023F000BF591700081D1800081B1B0008D4
:101750003B1A00086F1A0008A048FEF779FD9F4B5E
:101760001B78FF2B00F01C8297F847300333DBB265
:101770001A4602210020FFF713FB2A210020FFF761
:1017800099F897F84730954A127807F148010B44C9
:1017900003F8402C97F84730013387F8473097F823
:1017A0004730032B40F2FC8107F1100207F10803D8
:1017B00011461846FEF7DCFC0346002B1ED1002024
:1017C000FEF7ECFE002202210020FFF7E9FA84492F
:1017D0000020FFF7DDF9642000F0C8FB0020FEF7D1
:1017E000DDFE804B00221A707F4B00221A707F4B67
:1017F00000221A70784B01221A700BE00020FEF7CD
:10180000CDFE002202210020FFF7CAFA784900200D
:10181000FFF7BEF9002387F84730C1E1724B1B7810
:10182000002B36D10120FEF7B9FE00220021012055
:10183000FFF7B6FA6F490120FFF7AAF9002201214C
:101840000120FFF7ADFA6C490120FFF7A1F9002252
:1018500002210120FFF7A4FA68490120FFF798F957
:10186000002203210120FFF79BFA65490120FFF7C1
:101870008FF90E2202210120FFF792FA614B1B78AB
:10188000DBB29BB219460120FFF7CCF9564B01227F
:101890001A70002387F84530002387F8443000236E
:1018A00087F84330514B1B78002B26D100220021B2
:1018B0000020FFF775FA54490020FFF769F900226C
:1018C00001210020FFF76CFA50490020FFF760F972
:1018D000002202210020FFF763FA4D490020FFF7A4
:1018E00057F9002203210020FFF75AFA4949002046
:1018F000FFF74EF93D4B01221A703A4B1B78002B33
:1019000040F05081FB1D1846FEF7A2FCFB79FF2B2F
:1019100000F04881FB79313B032B00F2838001A268
:1019200052F823F0351900084D1900085519000820
:101930005D1900080020FEF731FE04213648FFF74C
:1019400015FC4FF4967000F011FB72E0224B02225E
:101950001A706EE0204B03221A706AE00020FEF736
:101960001DFE2E490020FFF713F90022012100205F
:10197000FFF716FA2A490020FFF70AF9C82000F0FD
:10198000F5FA002387F84230002387F842300FE051
:1019900097F8422013469B0013441F4A1344052125
:1019A0001846FFF7C9FB97F84230013387F84230F9
:1019B00097F84230032BEBD93BE000BF351200080B
:1019C00000380140111400080044004020240008A1
:1019D0002C240008302500084E0000209000002034
:1019E000402400084F00002050000020510000203B
:1019F000542400086424000874240008802400088B
:101A00009024000800000020A0240008B024000852
:101A1000C0240008CC24000824000020DC24000896
:101A2000E82400080020FEF7B9FD5F490020FFF719
:101A3000AFF85E4B01221A70B4E00020FEF7AEFD55
:101A40005B490020FFF7A4F80CE07B1D1846FEF769
:101A5000FFFB7B79FF2B05D0012387F84430554BE2
:101A600004221A7097F84430002BEED09BE000203F
:101A7000FEF794FD50490020FFF78AF848E03B1D2F
:101A80001846FEF7E5FB3B79FF2B41D07B79A3F1AC
:101A9000300297F846103C79484813469B0013449F
:101AA00003440B4422461A703B7919460020FEF786
:101AB00001FF97F84630013387F8463097F84630F3
:101AC000032B25D90020FEF769FD0022002100200C
:101AD000FFF766F93A490020FFF75AF80022012182
:101AE0000020FFF75DF9002387F84630012387F8CF
:101AF00045300020FEF752FD2C4B00221A70314B6E
:101B000000221A70304B00221A702A4B01221A70E0
:101B100097F84530002BB2D045E00020FEF73EFD9F
:101B200023490020FFF734F835E0BB1D1846FEF7C7
:101B30008FFBBB79FF2B2ED0002387F84130002389
:101B400087F8413011E0BB79A3F1300297F84110DA
:101B50001A4813469B00134403440B4400221A7096
:101B600097F84130013387F8413097F84130032B23
:101B7000E9D90020FEF712FD012387F843300B4B13
:101B800000221A700F4B00221A700F4B00221A709D
:101B9000084B01221A7097F84330002BC5D002E0A1
:101BA00000BFC7E500BFC5E5F82400084F000020CE
:101BB000082500084E0000201825000824000020F9
:101BC0002425000850000020510000200D488546C3
:101BD000AFF300800C480D490D4A002302E0D458B1
:101BE000C4500433C4188C42F9D30A4A0A4C002367
:101BF00001E013600432A242FBD300F0CBFBFFF7FD
:101C0000FDFCFEE70028002000000020040000206A
:101C10006C2500080400002094000020FEE780B43A
:101C200083B000AF0346FB80FB88802B42D0802B23
:101C300011DC082B36D0082B06DC022B2ED0042B0F
:101C40002ED0012B28D047E0202B2FD0402B2FD097
:101C5000102B29D040E0B3F5006F33D0B3F5006FFF
:101C600009DCB3F5007F29D0B3F5806F28D0B3F538
:101C7000807F21D030E0B3F5005F27D0B3F5005F5F
:101C800003DCB3F5805F1FD026E0B3F5804F1FD093
:101C9000B3F5004F1ED01FE000231EE004231CE01C
:101CA00008231AE00C2318E0102316E0142314E094
:101CB000182312E01C2310E000230EE004230CE0A4
:101CC00008230AE00C2308E0102306E0142304E0B4
:101CD000182302E01C2300E0002318460C37BD4601
:101CE00080BC704790B585B000AF78603960002344
:101CF000BB600023FB733B681B88FF2B01D87B680C
:101D000001E07B680433BB603B681B881846FFF723
:101D100086FF03461A460F239340DA43BB681B68CD
:101D20001A40BB681A603B689B78072B0BD03B6856
:101D30009B78062B07D03B689B78052B03D03B682C
:101D40009B78042B0ED13B689B78043B9B005AB2D6
:101D50003B68DB785BB213435BB2DBB203F00F038B
:101D6000FB732CE03B689B78012B03D03B689B788E
:101D7000002B07D13B689B789B00DBB203F00F037D
:101D8000FB731CE03B689B78082B02D10423FB7398
:101D900015E00823FB733B689B78022B07D17B6817
:101DA000DB683A6812881A437B68DA6007E07B6870
:101DB000DB683A681288D2431A407B68DA60FC7BA1
:101DC0003B681B881846FFF72AFF034604FA03F214
:101DD000BB681B681A43BB681A6000BF1437BD4656
:101DE00090BD80B485B000AF78600B467B807B6887
:101DF0009A687B881340002B02D00123FB7301E01B
:101E00000023FB73FB7B18461437BD4680BC70472C
:101E100080B483B000AF78600B467B8013467B7044
:101E20007B78002B03D07A887B681A6102E07A887D
:101E30007B685A6100BF0C37BD4680BC704700000C
:101E400080B400AF0A4B5B689B0803F00303012BCF
:101E500006D0012B02D3022B04D005E0054B03E092
:101E6000054B01E0044BFFE71846BD4680BC7047B8
:101E70000010024000127A000024F40080B500AF88
:101E8000FFF7DEFF0146054B5B681B0903F00F03FC
:101E9000034AD35C21FA03F3184680BD00100240C8
:101EA0005425000880B500AFFFF7E8FF0146054B59
:101EB0005B681B0A03F00703034AD35C21FA03F3B0
:101EC000184680BD001002404C25000880B500AFC8
:101ED000FFF7D4FF0146054B5B68DB0A03F00703FD
:101EE000034AD35C21FA03F3184680BD0010024078
:101EF0004C25000880B400AF114BDB69104A43F059
:101F00000103D3614FF0804307229A624FF0804370
:101F10004CF25032DA624FF080431B684FF080423F
:101F200043F00103136000BF4FF080431B6903F0CF
:101F30000103002BF8D000BFBD4680BC704700BF36
:101F40000010024080B483B000AF78604FF080434F
:101F500000225A6200BF4FF080435A6A7B689A425F
:101F6000F9D300BF0C37BD4680BC704780B584B044
:101F700000AF78600023FB6006E04FF47A70FFF753
:101F8000E1FFFB680133FB60FA687B689A42F4DB8F
:101F900000BF1037BD4680BD80B483B000AF78600D
:101FA0007B680B4A934201D100230CE07B68094A0D
:101FB000934201D1012306E07B68074A934201D195
:101FC000022300E0032318460C37BD4680BC70474F
:101FD000003801400044004000480040B0B584B0E3
:101FE00000AF786039607B68614A93420ED1614AE4
:101FF0003B6814461D460FCD0FC42B6823605E4B13
:102000009B695D4A43F48043936126E07B685B4AA9
:1020100093420FD1574B3A6803F1140415460FCD84
:102020000FC42B682360544BDB69534A43F40033DD
:10203000D36112E07B68524A93420ED14D4B3A680D
:1020400003F1280415460FCD0FC42B6823604A4BBB
:10205000DB69494A43F48023D3617B68DB6843F43E
:1020600000527B68DA607B68DB683A6812781A4352
:102070007B68DA607B68DB683A68127A1A437B68AF
:10208000DA607B68DB683A68527A1A437B68DA6008
:102090007B681B693A68927A1A437B681A617B688D
:1020A0005B693A68D27A1A437B685A617B68304A26
:1020B000934203D1FFF70AFFF86002E0FFF7F2FE58
:1020C000F8603B685B681B01FA68B2FBF3F3190127
:1020D000FA6813469B0013449A001A443B685B68F5
:1020E0009B00B2FBF3F23B685B681B01F868B0FB36
:1020F000F3F3642000FB03F3D31A1B01214AA2FB74
:1021000003235B0903F00F030B43BB607B68BA68D2
:102110009A603B681B7B002B26D07B68DB683A68A3
:10212000127B1A437B68DA607B68114A934206D1BE
:10213000154B1B68144A43F02003136014E07B68BE
:102140000E4A934206D1104B1B680F4A43F04003DE
:10215000136009E07B680A4A934205D10A4B1B6869
:10216000094A43F08003136000BF1037BD46B0BD7D
:10217000003801405400002000100240004400409C
:10218000004800401F85EB5104E100E080B586B0B7
:1021900000AFF860B9601346FB71FB79012B06D1E3
:1021A00000BFFB681B6803F08003002BF9D0F868C0
:1021B000FFF7F2FE0346FB75BB681B88DAB2FB68CB
:1021C0005A6000BF1837BD4680BD80B586B000AFED
:1021D000F860B9601346FB710D23BB820023FB75C9
:1021E0000AE0FB7DBA681344FA791946F868FFF7EC
:1021F000CDFFFB7D0133FB75FB7DBA6813441B7873
:10220000002BEED1FA7907F114031946F868FFF7AD
:10221000BDFF00BF1837BD4680BD000080B586B049
:1022200000AFF860B9601346FB71FB79012B06D152
:1022300000BFFB681B6803F02003002BF9D0F8688F
:10224000FFF7AAFE0346FB75FA7D0F4913469B0074
:1022500013449B000B4409331B78002B07D1FB6808
:102260005B689BB2DBB29AB2BB681A8007E0FB687E
:102270005B689BB203F07F039AB2BB681A8000BF11
:102280001837BD4680BD00BF5400002080B584B023
:1022900000AF78607B682B4A934218D14FF40073EB
:1022A000BB810623BB730123FB7307F10C031946A3
:1022B0002548FFF717FD4FF48063BB810823BB73EC
:1022C00007F10C0319462048FFF70CFD36E07B6848
:1022D0001E4A934216D10423BB810623BB730123FC
:1022E000FB7307F10C0319461748FFF7FBFC0823A3
:1022F000BB810823BB7307F10C0319461248FFF793
:10230000F1FC1BE07B68124A934217D14FF48063C3
:10231000BB810623BB730123FB7307F10C03194632
:102320000C48FFF7DFFC4FF40063BB810823BB734D
:1023300007F10C0319460748FFF7D4FC00BF10371C
:10234000BD4680BD00380140000801400044004007
:1023500000480040000C014080B500AF024B1B69F3
:10236000984700BF80BD00BF5400002080B500AF7B
:10237000024B5B6A984700BF80BD00BF540000203D
:1023800080B500AF024B9B6B984700BF80BD00BF7C
:102390005400002070B500250C4E0D4CA41BA41059
:1023A000A54209D100F01AF800250A4E0A4CA41BD8
:1023B000A410A54205D170BD56F8253098470135C7
:1023C000EEE756F8253098470135F2E76425000816
:1023D000642500086425000868250008F8B500BFDA
:1023E000F8BC08BC9E467047F8B500BFF8BC08BCF6
:0423F0009E4670474E
:1023F4002D200000596F75722049443A20000000D6
:10240400456C696769626C6520494400556E726564
:1024140067697374657265642049440048656C6C2F
:102424006F2041646D696E00456E74657220506161
:102434007373776F72643A2000000000436F727206
:102444006563742050617373776F726400000000D9
:1024540057726F6E672050617373776F72640000F8
:1024640057656C636F6D6520746F206F7572000023
:102474005061726B696E67203A290000456D707473
:102484007920536C6F74733A0000000050617373C9
:1024940020796F757220636172640000312D2044CD
:1024A4006973706C6179204944730000322D2044B3
:1024B400656C65746520494400000000332D20419B
:1024C4006464204944000000342D2044656C657424
:1024D4006520616C6C0000004944732064656C6580
:1024E400746564005375636365737366756C6C79A6
:1024F40000000000496E76616C6964204F70746955
:102504006F6E0000456E74657220496E6465783A9A
:1025140020000000456E7465722049443A20000092
:10252400456E746572656420494400003132333469
:102534000000000023302A3938373635343332313D
:102544000102081080402000000000000102030482
:10255400000000000000000001020304060708094F
:042564005501000815
:042568003101000835
:04256C000300000068
:0400000508001BCD07
:00000001FF
